:020000040800F2
:100000003806002081020008D7110008831100087B
:10001000D5110008B9030008011500080000000010
:10002000000000000000000000000000C101000806
:10003000BB030008000000001D020008D9110008E1
:100040009B0200089B0200089B0200089B0200081C
:100050009B0200089B0200089B0200089B0200080C
:100060009B0200089B0200089B0200089B020008FC
:100070009B0200089B0200089B0200089B020008EC
:100080009B0200089B0200089B0200089B020008DC
:100090009B0200089B0200089B0200089B020008CC
:1000A0009B0200089B0200089B0200089B020008BC
:1000B0009B0200089B0200089D1200089B0200089A
:1000C0009B0200089B0200089B0200089B0200089C
:1000D0009B0200089B0200089B0200089B0200088C
:1000E0009B0200089B0200089B0200089B0200087C
:1000F0009B0200089B0200089B0200089B0200086C
:100100009B0200089B0200089B0200089B0200085B
:100110009B0200089B0200089B020008A91200082D
:100120009B0200089B0200089B0200089B0200083B
:100130009B0200089B0200089B0200089B0200082B
:100140009B0200089B0200089B0200089B0200081B
:100150009B0200089B0200089B0200089B0200080B
:100160009B0200089B0200089B0200089B020008FB
:100170009B0200089B0200089B0200080000000090
:100180009B0200089B0200089B0200089B020008DB
:100190009B0200089B0200089B0200089B020008CB
:1001A0009B0200089B0200089B020008DFF80CD0AD
:1001B00000F0F0F800480047011800083806002059
:1001C0002C4B19680868B0E8F04F80F30988BFF33A
:1001D0006F8F4FF0000080F311887047000000001F
:1001E00008480068006880F308884FF0000080F33A
:1001F000148862B661B6BFF34F8FBFF36F8F00DF15
:1002000000BF00BF08ED00E0DFF80C00016841F41A
:1002100070010160704700BF88ED00E0EFF30980D6
:10022000BFF36F8F134B1A681EF0100F08BF20ED3D
:10023000108A20E9F04F106009B44FF0500080F3AD
:100240001188BFF34F8FBFF36F8F01F0C1FC4FF0E8
:10025000000080F3118809BC19680868B0E8F04F05
:100260001EF0100F08BFB0EC108A80F30988BFF3AE
:100270006F8F704714000020EFF305807047000077
:100280000648804706480047FEE7FEE7FEE7FEE730
:10029000FEE7FEE7FEE7FEE7FEE7FEE78D12000859
:1002A000AD0100082DE9F05F0546002092469B460F
:1002B00088460646814640241BE02846414647467C
:1002C000224600F057F853465A46C01A914110D3BF
:1002D00011461846224600F03EF82D1A67EB010839
:1002E0004F4622460120002100F035F817EB0009A7
:1002F0004E41201EA4F10104DFDC484631462A4667
:100300004346BDE8F09FD2B201E000F8012B491E40
:10031000FBD270470022F6E710B513460A460446A2
:100320001946FFF7F0FF204610BD30B50B460146D9
:1003300000202022012409E021FA02F59D4205D384
:1003400003FA02F5491B04FA02F52844151EA2F12E
:100350000102F1DC30BD202A04DB203A00FA02F170
:10036000002070479140C2F1200320FA03F31943A3
:1003700090407047202A04DB203A21FA02F0002145
:10038000704721FA02F3D040C2F1200291400843A5
:1003900019467047064C074D06E0E06840F001033F
:1003A00094E8070098471034AC42F6D3FFF702FFF9
:1003B000581D0008781D0008FEE7704772B6FEE77A
:1003C0002DE9F84FDFF8F8A1002201240AF1040B0F
:1003D00003254FF00F090BF1040E00BF0B6804FA60
:1003E00002F63340B34270D10F7907F00307012FB3
:1003F00001D0022F16D187684FEA420805FA08FC9F
:1004000027EA0C07D1F80CC00CFA08FC4CEA070CE0
:10041000C0F808C04768B7430E79C6F30016964087
:100420003E4346600E79F643B6070AD0C7684FEAE6
:10043000420C05FA0CF6B7438E6806FA0CF63E43FA
:10044000C6600E7906F00306022E10D1D60800EB26
:100450008608D8F8206057074FEAD76C09FA0CF7DE
:10046000BE430F6907FA0CF73743C8F820700668D7
:100470004FEA420C05FA0CF7BE430F7907F0030769
:1004800007FA0CF7374307604E6816F4403F1CD05C
:100490004C4E376847F480473760366822F00307D0
:1004A00006F480460096484E07EB060CDCF8086818
:1004B00097073F0F09FA07F826EA0806DFF80C81CC
:1004C000404503D14FF0000841E072E0DFF80081C1
:1004D000404502D14FF0010839E0DFF8F88040458F
:1004E00002D14FF0020832E0DFF8EC80404502D143
:1004F0004FF003082BE0DFF8E480404502D14FF0D5
:10050000040824E0DFF8D880404502D14FF0050808
:100510001DE0DFF8D080404502D14FF0060816E01C
:10052000DFF8C480404502D14FF007080FE0DFF844
:10053000BC80404502D14FF0080808E0DFF8B080E9
:10054000404502D14FF0090801E04FF00A0808FACF
:1005500007F848EA0608CCF80888DAF80060574639
:10056000D1F804C09E435FEACC3C00D51E433E60F8
:10057000DBF800605F46D1F804C09E435FEA8C3C24
:1005800000D51E433E60DEF800607746D1F804C017
:100590009E435FEACC2C00D51E433E60084F0C37CB
:1005A0003E68D1F804C09E435FEA8C2C00D51E4300
:1005B0003E60521C102AFFF411AFBDE8F88F000016
:1005C000003C01404438024000300140000002403D
:1005D0000004024000080240000C024000100240EB
:1005E0000014024000180240001C0240002002409B
:1005F000002402400069084000D001207047426991
:1006000021EA02030A4043EA0241816170470AB1CC
:10061000816170470904FBE701488068704700006A
:10062000040000200248816802781144816070470C
:10063000040000200B4810B5016841F4007101600E
:10064000016841F480610160016841F480710160DA
:10065000032000F073F80F2000F006F800F024F8F3
:10066000002010BD003C024070B50D4D04464FF413
:100670007A712878B1FBF0F00A490968B1FBF0F013
:1006800000F048FB48B9102C07D200222146501E2A
:1006900000F034F800206C6070BD012070BD0000D7
:1006A00004000020100000200C4882B0016841F4D2
:1006B00080410160006800F4804000900748001FFE
:1006C000016841F0805101600068002200F0805014
:1006D00000900F21901E02B000F010B84438024084
:1006E000002809DB00F01F02012191404009800031
:1006F00000F1E020C0F8001170470000F0B40E4B8C
:100700001B680C46C3F30223C3F10705042D00D96F
:100710000425191D072901D2002300E0DB1E012654
:1007200006FA05F1491E214099409E40761E16406A
:100730003143F0BC00F0F6BE0CED00E0064900F0DD
:10074000070208684FF6FF03184040EA0220034AF8
:1007500010430860704700000CED00E00000FA054F
:100760002DE9F8431748016841F0805101600068A5
:10077000154F00F08050012600903E64FFF74CFFBB
:1007800005464FF47A78114C05E000BFFFF744FFAF
:10079000401B40450DD86068C003F7D57E64FFF765
:1007A0003BFF0546464607E0FFF736FF401BB042D9
:1007B00002D90320BDE8F88360688003F4D50020E7
:1007C000F8E700004038024000000E420070004090
:1007D0002DE9F0470E46050065D0DFF81481D8F802
:1007E0000000F7B200F00F00B04207D288F80070A6
:1007F000D8F8000000F00F00B04254D128683D4CFA
:10080000810712D5400703D5206840F4E0502060EE
:100810002878000703D5206840F4604020602068F5
:10082000A96820F0F000084320602878C0072DD088
:10083000304968680839012812D0022813D00328EB
:1008400011D00968890700292DDA216821F00301F8
:1008500001432160FFF7E0FE814641F2883A0EE055
:1008600009688903EFE709688901ECE7FFF7D4FE1F
:10087000A0EB0901514502D90320BDE8F0872068AB
:10088000696800F00C00B0EB810FEFD1D8F80010D0
:10089000404601F00F01B14207D90770006800F02F
:1008A0000F00B04201D00120E7E72878400705D5C6
:1008B0002068E96820F4E0500843206028780007A9
:1008C00006D52068296920F4604040EAC100206014
:1008D00000F038F82168084AC1F30311515CC840A0
:1008E0000649086006480068FFF7BEFE0020C4E71E
:1008F000003C024008380240401D00081000002063
:10090000080000200448054900680968044AC1F34A
:100910008221515CC8407047100000200838024016
:10092000501D00080448054900680968044AC1F3DD
:100930004231515CC8407047100000200838024026
:10094000501D0008154810B5006810F00C0214483E
:1009500013D01449042A0FD0082A0ED10F4C241F9B
:100960002268236802F03F025B0207D52068C0F3CB
:100970008810A0FB010106E0084610BD2168C1F304
:100980008811A1FB00010023FFF78CFC2168C1F353
:100990000141491C4900B0FBF1F010BD083802408C
:1009A0000024F40040787D012DE9F84F04006ED05A
:1009B0002078DFF84C93C007A9F104054AD009F16B
:1009C00004000168C1F38101012908D00068C0F367
:1009D000810002280AD1D9F80000400206D5286813
:1009E000800337D560680028E1D033E06068B0F557
:1009F000803F10D0B0F5A02F286810D020F48030B0
:100A00002860286820F4802028606068A8B1FFF77B
:100A100003FE06460DE0286840F48030F4E740F419
:100A200080202860F7E700BFFFF7F6FD801B6428F1
:100A300073D828688003F7D50CE0FFF7EDFD064674
:100A400005E000BFFFF7E8FD801B6428F0D82868A8
:100A50008003F7D42078DFF8AC8280074FF0000ADB
:100A60003ED5A748001D016811F00C0F08D00068A2
:100A7000C0F3810002280BD1D9F80000400207D44E
:100A80002868800716D5E068012800D112E033E11C
:100A9000E068B8B10120C8F80000FFF7BDFD0646C8
:100AA00005E000BFFFF7B8FD801B0228C0D828680A
:100AB0008007F7D52868216920F0F80040EAC100D6
:100AC00028600DE0C8F800A0FFF7A6FD064604E088
:100AD000FFF7A2FD801B02281FD828688007F7D4E3
:100AE0002078000722D5864F87486169703771B139
:100AF00001210160FFF790FD064604E0FFF78CFD41
:100B0000801B022809D838688007F7D50EE0C0F8A6
:100B100000A0FFF781FD064605E082E0FFF77CFDBF
:100B2000801B02287DD838688007F7D420784007DA
:100B300068D5DFF8CCB100270BF13C0BDBF80000E7
:100B4000C0000BD4DBF8001041F08051CBF800104E
:100B5000DBF80000012700F0805000906B4E3068F9
:100B6000C00510D4306840F480703060FFF754FD49
:100B7000009005E0FFF750FD0099401A022850D878
:100B80003068C005F6D55E4EA0686C3601280FD0DF
:100B90000528306810D020F001003060306820F067
:100BA00004003060A068B8B1FFF736FD00900FE098
:100BB000306840F00100F4E740F004003060F7E7EF
:100BC000FFF72AFD0099411A41F28830814266D828
:100BD00030688007F4D50EE0FFF71EFD009007E0B7
:100BE000FFF71AFD0099411A41F28830814256D828
:100BF00030688007F4D42FB1DBF8001021F0805169
:100C0000CBF80010A069C8B33D49091D0968C1F3BC
:100C1000810102294AD00228504607D0C8F8600056
:100C200000E03CE0FFF7F8FC04463BE04746C8F82C
:100C30006000FFF7F1FC064605E000BFFFF7ECFCA3
:100C4000801B02282BD828688001F7D4D4E907013B
:100C50000843A16A2E4A490802EB0141626A41EA4F
:100C60008211084394F82C1040EA0161C9F8001081
:100C700001203866FFF7D0FC044606E03EE000BFE6
:100C8000FFF7CAFC001B022809D828688001F7D5A5
:100C900034E000BFFFF7C0FC001B022802D903208C
:100CA000BDE8F88F28688001F4D427E00128F7D048
:100CB000D9F80000E26900F4800191421CD1226A57
:100CC00000F03F01914217D147F6C071626A0140BE
:100CD000B1EB821F10D1A26A4FF0FF3300F4403114
:100CE00003EB5202B1EB024F06D194F82C1000F046
:100CF0007060B0EB016F01D00120D1E70020CFE799
:100D00000438024000004742800E47420070004015
:100D10000000FFFF10B5401EB0F1807F01D301201D
:100D200010BD4FF0E02460610F21601700F0FAFB66
:100D30000020A06107202061002010BD704770478F
:100D400010B5040003D094F83D0010B107E0012075
:100D500010BD002084F83C00204600F01EF8022060
:100D600084F83D00211D206800F0A4FA012084F8D9
:100D7000460084F83E0084F83F0084F8400084F880
:100D8000410084F8420084F8430084F8440084F869
:100D9000450084F83D00002010BD704790F83D10DC
:100DA000012901D001207047022180F83D1001681F
:100DB000CA6842F00102CA6000681149884214D032
:100DC000B0F1804F11D00F4988420ED00E498842B1
:100DD0000BD00E49884208D00D49884205D00D49F4
:100DE000884202D00C49884204D1816801F0070191
:100DF000062903D0016841F001010160002070471D
:100E0000000001400004004000080040000C0040C9
:100E10000004014000400140001800400168CA6819
:100E200022F00102CA6001680A6A41F211131A42F3
:100E300007D10A6A9B101A4203D10A6822F0010204
:100E40000A60012180F83D1000207047704770B59E
:100E50000446006801694FF00005C943890715D4AD
:100E6000C168C943890711D4E91E016101202077B7
:100E7000206880698007204602D0FFF7E7FF04E082
:100E800000F098F8204600F096F825772068016970
:100E9000C943490717D4C168C943490713D46FF040
:100EA00004010161022020772068806910F4407FEE
:100EB000204602D0FFF7CAFF04E000F07BF820468E
:100EC00000F079F8257720680169C943090716D42D
:100ED000C168C943090712D46FF0080101610420F9
:100EE00020772068C0698007204602D0FFF7AEFF58
:100EF00004E000F05FF8204600F05DF825772068F8
:100F00000169C943C90617D4C168C943C90613D4C6
:100F10006FF010010161082020772068C06910F48B
:100F2000407F204602D0FFF791FF04E000F042F836
:100F3000204600F040F8257720680169C943C907B9
:100F400008D1C168C943C90704D1891E016120467F
:100F500000F032F820680169C943090609D4C16864
:100F6000C943090605D46FF0800101612046FFF7EF
:100F7000E5FE20680169C943490609D4C168C9432F
:100F8000490605D46FF040010161204600F06CF87D
:100F900020680169C94389060BD4C168C943890621
:100FA00007D46FF0200101612046BDE87040FFF7D3
:100FB000C6BE70BD7047704770B5284EB04242D172
:100FC000274C0425207806282CD2DFE800F03603D1
:100FD0000E1F192C21484830FFF7E0FE3168C86A1F
:100FE00044F620621AE025701BE01C484830FFF7E9
:100FF000D5FE3168C86A401E13D10022227010E06D
:10100000BDE8704015484830FFF7C8BE1348483067
:10101000FFF7C4FE3168C86A45F21402401C9042D2
:10102000E1D0C86270BD0D484830FFF7B7FE3168A7
:10103000C86A44F62C42401EF1E7BDE870400748FC
:101040004830FFF7EBBE054948318842EAD100221B
:101050004FF480510348FFF7DAFAEEE7B8000020BA
:1010600003000020001C0240704770B5040004D04B
:1010700094F83D00002510B106E0012070BD84F811
:101080003C50204600F022F8242084F83D002068DF
:10109000C16821F40051C160204600F06FF920685A
:1010A000016921F4904101612068416921F02A0120
:1010B00041612068C16841F40051C160256420206D
:1010C00084F83D0084F83E00002070BD70470000A9
:1010D0002DE9F843044690F83D001F4616460D469C
:1010E00020284CD1C5B1BEB194F83C00012846D0AF
:1010F000012084F83C004FF00008C4F84080212013
:1011000084F83D00FFF788FAA6848146E684A0684B
:10111000B0F5805F03D004E00120BDE8F8832069CA
:1011200028B12E465FF0000584F83C800EE00026D2
:10113000FAE78021204600F0A7F9A0B9AEB116F871
:10114000010B21684860E08C401EE084E08C4B4637
:101150004FF0000200970028EBD14FF040012046ED
:1011600000F092F930B10320D7E735F8020BC0F355
:101170000800E6E7202084F83D000020CDE70220AB
:10118000CBE7FEE7104808B50268002142F01002E4
:10119000026000680D4A00F0100000900C480260E8
:1011A0004FF4E132C0E901210C22C160C0E9041210
:1011B0008161C161FFF759FF002803D0BDE80840F5
:1011C000FFF7FCB808BD00004438024000100140A1
:1011D00074000020FEE7FEE710B5FFF723FA00F0E9
:1011E0003BFD012803D0BDE8104000F01FBD10BD3D
:1011F00070B592B030216846FFF78CF814210CA826
:10120000FFF788F81F480025016841F08051016010
:10121000006800F0805011901B48016841F4404183
:1012200001600068022400F4404011900120009009
:10123000000401908001CDE906400F260896D820D1
:10124000CDE9090404200B906846FFF7ADFB08B117
:1012500072B6FEE7FFF784FA08B172B6FEE74FF404
:10126000A050CDE90E504FF48050CDE90C641090A1
:1012700005210CA8FFF7ACFA002801D072B6FEE7F2
:1012800012B070BD40380240007000400248016852
:1012900041F470010160704788ED00E00148FFF7FC
:1012A000D6BD0000B80000200148FFF7D0BD000007
:1012B00000010020F0B50268254C264D264E274F30
:1012C000274B4FF0804CA04209D0604507D0A84280
:1012D00005D0B04203D0B84201D0984204D122F0E8
:1012E000700E4A6842EA0E02A0421BD0604519D037
:1012F000A84217D0B04215D0B84213D0984211D0AE
:10130000184DA8420ED0184DA8420BD0174DA84238
:1013100008D0174DA84205D0164DA84202D0164D50
:10132000A84203D122F44075CA682A434D6922F0CD
:1013300080022A4302608A68C2620A688262A0420E
:1013400001D0984201D10969016301214161F0BDD9
:10135000000001400004004000080040000C004074
:1013600000040140004001400044014000480140A9
:1013700000180040001C00400020004070B50446EA
:1013800000680169E26821F440511143016121695B
:10139000A068E26908436169114308432168CA688B
:1013A00049F20C639A430243CA6020684169A2690A
:1013B00021F440711143416131492068884202D0D3
:1013C0003049884202D1FFF7ADFA01E0FFF79AFAFF
:1013D000E2690023192164253226B2F5004F6268C4
:1013E00028D0A0FB0101930F9200FEF75BFF01469E
:1013F000B0FBF5F06FF01802504301EB800006EBF4
:101400000010B0FBF5F000F0F002B1FBF5F002EBDC
:101410000012B1FBF5F06FF01803584301EB8000A8
:1014200006EB0010B0FBF5F000F00F00216810444F
:10143000886070BDA0FB010192185B41FEF732FF8E
:101440000146B0FBF5F00201B1FBF5F06FF01803B7
:10145000584301EB800006EBC000B0FBF5F000F054
:10146000F80002EB4002B1FBF5F0584301EB8000BD
:1014700006EBC000B0FBF5F000F00700D6E7000077
:1014800000100140001401402DE9F0419846174634
:101490000E460446069D27E0681C25D02DB1FFF7B7
:1014A000BBF8A0EB0800A8421ED920680C3050E819
:1014B000001F21F4D07140E80012002AF5D1206805
:1014C000143050E8001F21F0010140E80012002A0A
:1014D000F5D1202084F83D0084F83E00002084F8F7
:1014E0003C000320BDE8F0812068006836EA000077
:1014F00004D00020B842CFD00020F3E70120F9E764
:10150000FEE700000FB4054B10B503A9044A02988A
:1015100000F028F810BC5DF814FB0000B9160008B4
:10152000500000200907090E002804DB00F1E0202C
:1015300080F80014704700F00F0000F1E02080F800
:10154000141D704702E008C8121F08C1002AFAD112
:1015500070477047002001E001C1121F002AFBD133
:10156000704700002DE9FF4F89B09B4604460025D7
:1015700006E025280BD05A460B999047641C6D1C39
:1015800020780028F5D10DB02846BDE8F08F00275F
:10159000B8460122474900E0074314F8013F203BC9
:1015A00002FA03F00842F7D120782E2819D114F856
:1015B000010F47F004072A280ED06FF02F02207881
:1015C000A0F1300109290CD808EB880102EB410198
:1015D00000EB0108641CF2E70A98641C50F8048BC5
:1015E0000A9020780028CED0642808D0692806D038
:1015F00075281ED05A460B9990476D1C58E00A99E1
:101600004FF00A0901C90A91002802DA40422D214F
:1016100002E0390504D52B218DF82010012103E0CB
:10162000F90704D02021F7E78A4608AE0DE0002133
:10163000FAE70A994FF00A0901C90A91F7E7494602
:10164000FEF773FE303106F8011D0028F7D1ADEB2F
:10165000060000F12009780701D44FF00108C845C1
:1016600002DDA8EB090000E000208046002706E02C
:1016700008A85A46C05D0B9990476D1C7F1C5745C2
:10168000F6DB04E030205A460B9990476D1CB8F108
:101690000001A8F10108F5DC05E016F8010B5A4637
:1016A0000B9990476D1CB9F10001A9F10109F4DC17
:1016B000641C65E70928010038B5044600904FF422
:1016C0007A73012269460248FFF702FD204638BDC1
:1016D00074000020F8B5012204211E2000F04BF810
:1016E0001E4D0024286840F00400286028681C492A
:1016F00000F0040000901B482D268027016044F66E
:10170000C831C0E90314C0E90164C0E90547FFF727
:1017100017FB1448FFF742FB01220321372000F09A
:101720002AF8286840F02000286028680E4900F058
:10173000200000900B48483001604FF47A71C0E9F6
:101740000314C0E90164C0E90547FFF7F9FABDE8F1
:10175000F84004484830FFF761BB000040380240C1
:1017600000080040B8000020001400400022FEF7EE
:101770004EBFFEF744BF10B50446FEF7BFFF20463C
:10178000BDE81040FEF7ACBF0068C06A7047006853
:10179000C16270472DE9F041DFF8588001214046D1
:1017A000FEF728FF0125144C012801D1207848B10B
:1017B000124F4FF4005631463846FEF71BFF012802
:1017C00004D005E025700120BDE8F081207828B123
:1017D00001214046FEF70EFF18B109E025700220F6
:1017E000F2E731463846FEF705FF08B900202070C1
:1017F0000020E9E70000024002000020000802404B
:101800001FB5FEF717FFFFF7F3FC0024494E4FF01A
:101810000108CDE90084CDE902464546234622462B
:101820002146454800F0A6F84448CDE90054CDE9EA
:101830000240002302220D213F4800F09BF8DFF810
:1018400000A1CDE90054CDE9024A57460123072201
:101850000B21394800F08EF80122D1023846FEF7FC
:10186000D6FE0B27CDE90054CDE9027608230022ED
:101870000921314800F07EF8CDE90054CDE9027627
:10188000082300220A212C4800F074F8FFF77AFCA4
:10189000FFF720FF2BA0FFF735FE2F4E2F4D44F60C
:1018A000206B4FF0040900BFFFF774FF30702C4825
:1018B000FFF76AFF074601462AA0FFF723FE3078AC
:1018C0000128F1D17078042800D174707078401C20
:1018D000C0B2707001280FD0022816D0032820D083
:1018E0000428E1D102202870012FDDD82C700021BE
:1018F0001B48FFF74CFFD7E74FF400615046FFF756
:1019000035FF85F80080594608E04FF400615046E5
:10191000FFF72FFF0320287045F208218F42C3D321
:1019200005E0052044F6382128708F42BCD885F8A0
:101930000090DDE700000240540000200008024053
:10194000001C0240E5889DE5A78BE58C96E5AE8CF2
:10195000E688905C6E00000000000020030000207C
:10196000B80000200A72656C6F6164203D20256418
:101970000A0000002DE9F047044608A89A4690E8BE
:10198000E0018946104600F037F84946204600F04D
:10199000BAF85146204600F097F82946204600F054
:1019A000EFF83146204600F0E1F83946204600F0D5
:1019B00017F804F108014046BDE8F047FEF700BD06
:1019C0000648416B096829B1416BC968C968496813
:1019D000816270474FF0FF31FAE7000014000020E9
:1019E000002907D00B2903D01A2903D1012100E0D7
:1019F000072181617047000008B532490B285FD28A
:101A0000DFE800F0060E161E262E363E464E560025
:101A1000086840F001000860086800F001004EE02E
:101A2000086840F002000860086800F0020046E024
:101A3000086840F004000860086800F004003EE018
:101A4000086840F008000860086800F0080036E008
:101A5000086840F010000860086800F010002EE0F0
:101A6000086840F020000860086800F0200026E0C8
:101A7000086840F040000860086800F040001EE080
:101A8000086840F080000860086800F0800016E0F8
:101A9000086840F480700860086800F480700EE008
:101AA000086840F400700860086800F4007006E000
:101AB000086840F480600860086800F48060009066
:101AC00008BD00003038024009291BD2DFE801F0D0
:101AD0000507090F1114170B0D00002111E001215A
:101AE0000FE011210DE012210BE0022109E003219A
:101AF00007E04FF4041104E04FF4881101E04FF4C3
:101B00004411C160704710292FD2DFE801F02E0880
:101B10000A0C0E10121416191C1F2225282B022144
:101B200022E0042120E008211EE010211CE02021F9
:101B30001AE0402118E0802116E04FF4807113E094
:101B40004FF4007110E04FF480610DE04FF400613C
:101B50000AE04FF4805107E04FF4005104E04FF4E5
:101B6000804101E04FF400418160704731B10129AB
:101B700003D0022903D1012100E002210161704755
:101B800021B1012902D0022901D10321416170470D
:101B9000D0E9013201699A60D0E901235A604A68AC
:101BA000824201D182684A60002202610868401EB8
:101BB00008600868704742684A6093688B60936861
:101BC0005960916008610168491C0160704700001C
:101BD0001448016B11B10121C16170470021C1613D
:101BE0000169B1FA81F1C1F11F0101EB81020E49D6
:101BF00051F822306BB101EB820101F108034A6810
:101C000052684A609A4201D152684A60D1680160C4
:101C10007047502080F31188BFF34F8FBFF36F8F51
:101C2000FEE70000140000204801002010B55020FD
:101C300080F31188BFF34F8FBFF36F8F00F01AF856
:101C400018B104494FF080500860002080F31188DB
:101C500010BD000004ED00E00548416919B1006BBA
:101C600018B1002070470120704702207047000023
:101C7000140000202DE9F0412F4C0026206B28B1E4
:101C8000A069401CA0613046BDE8F081E5686D1C8C
:101C9000E56013D1606B006838B1502080F3118883
:101CA000BFF34F8FBFF36F8FFEE7606BA16B616374
:101CB000A063206A401C2062FFF782FEA06ADFF862
:101CC0007C80854209D3606B0068A0B1606BC068FE
:101CD000C7687868854211D2A0622068C06A00EBAC
:101CE000800158F82100012800D90126E069002868
:101CF000C9D00126C7E74FF0FF30EDE7381DFFF7E9
:101D000047FFB86A18B107F11800FFF741FFF96AF9
:101D10000120226988401043206101EB810108EB1A
:101D20008100391DFFF747FFF86A2168C96A8842B8
:101D3000C9D30126C7E70000140000204801002095
:101D4000000000000000000001020304060708096B
:101D50000000000001020304781D000800000020BC
:101D60005400000044150008CC1D00085400002059
:101D7000E405000054150008000000000100000008
:101D800010000000000000000024F400000000002B
:101D90000000000000000000000000000000000043
:101DA0000000000000000000000000000000000033
:101DB0000000000000000000000000000000000023
:0C1DC00000000000000000000000000017
:04000005080001AD41
:00000001FF
