:020000040800F2
:100000007005002081020008F30D0008EF0D0008C4
:10001000F10D00088D0300083D10000800000000ED
:10002000000000000000000000000000C101000806
:100030008F030008000000001D020008F50D0008F5
:100040009B0200089B0200089B0200089B0200081C
:100050009B0200089B0200089B0200089B0200080C
:100060009B0200089B0200089B0200089B020008FC
:100070009B0200089B0200089B0200089B020008EC
:100080009B0200089B0200089B0200089B020008DC
:100090009B0200089B0200089B0200089B020008CC
:1000A0009B0200089B0200089B0200089B020008BC
:1000B0009B0200089B0200089B0200089B020008AC
:1000C0009B0200089B0200089B0200089B0200089C
:1000D0009B0200089B0200089B0200089B0200088C
:1000E0009B0200089B0200089B0200089B0200087C
:1000F0009B0200089B0200089B0200089B0200086C
:100100009B0200089B0200089B0200089B0200085B
:100110009B0200089B0200089B0200089B0200084B
:100120009B0200089B0200089B0200089B0200083B
:100130009B0200089B0200089B0200089B0200082B
:100140009B0200089B0200089B0200089B0200081B
:100150009B0200089B0200089B0200089B0200080B
:100160009B0200089B0200089B0200089B020008FB
:100170009B0200089B0200089B0200080000000090
:100180009B0200089B0200089B0200089B020008DB
:100190009B0200089B0200089B0200089B020008CB
:1001A0009B0200089B0200089B020008DFF80CD0AD
:1001B00000F0DAF800480047D11000087005002070
:1001C0002C4B19680868B0E8F04F80F30988BFF33A
:1001D0006F8F4FF0000080F311887047000000001F
:1001E00008480068006880F308884FF0000080F33A
:1001F000148862B661B6BFF34F8FBFF36F8F00DF15
:1002000000BF00BF08ED00E0DFF80C00016841F41A
:1002100070010160704700BF88ED00E0EFF30980D6
:10022000BFF36F8F134B1A681EF0100F08BF20ED3D
:10023000108A20E9F04F106009B44FF0500080F3AD
:100240001188BFF34F8FBFF36F8F01F05BF94FF051
:10025000000080F3118809BC19680868B0E8F04F05
:100260001EF0100F08BFB0EC108A80F30988BFF3AE
:100270006F8F704710000020EFF30580704700007B
:100280000648804706480047FEE7FEE7FEE7FEE730
:10029000FEE7FEE7FEE7FEE7FEE7FEE7A90E000841
:1002A000AD0100082DE9F05F0546002092469B460F
:1002B00088460646814640241BE02846414647467C
:1002C000224600F041F853465A46C01A914110D3D5
:1002D00011461846224600F028F82D1A67EB01084F
:1002E0004F4622460120002100F01FF817EB0009BD
:1002F0004E41201EA4F10104DFDC484631462A4667
:100300004346BDE8F09FD2B201E000F8012B491E40
:10031000FBD270470022F6E710B513460A460446A2
:100320001946FFF7F0FF204610BD202A04DB203AD3
:1003300000FA02F1002070479140C2F1200320FA38
:1003400003F3194390407047202A04DB203A21FA36
:1003500002F00021704721FA02F3D040C2F12002DE
:100360009140084319467047064C074D06E0E06887
:1003700040F0010394E8070098471034AC42F6D3EC
:10038000FFF718FF8C160008AC160008FEE7704750
:100390002DE9F84FDFF8F8A1002201240AF1040B3F
:1003A00003254FF00F090BF1040E00BF0B6804FA90
:1003B00002F63340B34270D10F7907F00307012FE3
:1003C00001D0022F16D187684FEA420805FA08FCCF
:1003D00027EA0C07D1F80CC00CFA08FC4CEA070C11
:1003E000C0F808C04768B7430E79C6F300169640B8
:1003F0003E4346600E79F643B6070AD0C7684FEA17
:10040000420C05FA0CF6B7438E6806FA0CF63E432A
:10041000C6600E7906F00306022E10D1D60800EB56
:100420008608D8F8206057074FEAD76C09FA0CF70E
:10043000BE430F6907FA0CF73743C8F82070066807
:100440004FEA420C05FA0CF7BE430F7907F0030799
:1004500007FA0CF7374307604E6816F4403F1CD08C
:100460004C4E376847F480473760366822F0030700
:1004700006F480460096484E07EB060CDCF8086848
:1004800097073F0F09FA07F826EA0806DFF80C81FC
:10049000404503D14FF0000841E072E0DFF80081F1
:1004A000404502D14FF0010839E0DFF8F8804045BF
:1004B00002D14FF0020832E0DFF8EC80404502D173
:1004C0004FF003082BE0DFF8E480404502D14FF005
:1004D000040824E0DFF8D880404502D14FF0050839
:1004E0001DE0DFF8D080404502D14FF0060816E04D
:1004F000DFF8C480404502D14FF007080FE0DFF875
:10050000BC80404502D14FF0080808E0DFF8B08019
:10051000404502D14FF0090801E04FF00A0808FAFF
:1005200007F848EA0608CCF80888DAF80060574669
:10053000D1F804C09E435FEACC3C00D51E433E6028
:10054000DBF800605F46D1F804C09E435FEA8C3C54
:1005500000D51E433E60DEF800607746D1F804C047
:100560009E435FEACC2C00D51E433E60084F0C37FB
:100570003E68D1F804C09E435FEA8C2C00D51E4330
:100580003E60521C102AFFF411AFBDE8F88F000046
:10059000003C01404438024000300140000002406D
:1005A0000004024000080240000C0240001002401B
:1005B0000014024000180240001C024000200240CB
:1005C000002402400AB1816170470904FBE7000082
:1005D00001488068704700000000002002488168E0
:1005E0000278114481607047000000200B4810B56C
:1005F000016841F400710160016841F480610160AB
:10060000016841F480710160032000F065F80F205B
:1006100000F006F800F024F8002010BD003C024075
:1006200070B50D4D04464FF47A712878B1FBF0F0A7
:100630000A490968B1FBF0F000F03AFB48B9102C08
:1006400007D200222146501E00F026F800206C60E0
:1006500070BD012070BD0000000000200C000020D3
:100660000C4882B0016841F480410160006800F4E8
:10067000804000900748001F016841F080510160F0
:100680000068002200F0805000900F21901E02B000
:1006900000F002B844380240F0B40E4B1B680C4620
:1006A000C3F30223C3F10705042D00D90425191D46
:1006B000072901D2002300E0DB1E012606FA05F11E
:1006C000491E214099409E40761E16403143F0BCA1
:1006D00000F0BEBC0CED00E0064900F0070208681F
:1006E0004FF6FF03184040EA0220034A1043086017
:1006F000704700000CED00E00000FA052DE9F8431A
:100700001748016841F0805101600068154F00F002
:100710008050012600903E64FFF75AFF05464FF4D3
:100720007A78114C05E000BFFFF752FF401B4045AF
:100730000DD86068C003F7D57E64FFF749FF054612
:10074000464607E0FFF744FF401BB04202D90320B2
:10075000BDE8F88360688003F4D50020F8E7000066
:100760004038024000000E42007000402DE9F04782
:100770000E46050065D0DFF81481D8F80000F7B206
:1007800000F00F00B04207D288F80070D8F80000DF
:1007900000F00F00B04254D128683D4C810712D5BB
:1007A000400703D5206840F4E05020602878000717
:1007B00003D5206840F4604020602068A96820F0DC
:1007C000F000084320602878C0072DD030496868C1
:1007D0000839012812D0022813D0032811D0096843
:1007E000890700292DDA216821F0030101432160E6
:1007F000FFF7EEFE814641F2883A0EE00968890370
:10080000EFE709688901ECE7FFF7E2FEA0EB0901D9
:10081000514502D90320BDE8F0872068696800F0DF
:100820000C00B0EB810FEFD1D8F80010404601F07A
:100830000F01B14207D90770006800F00F00B04205
:1008400001D00120E7E72878400705D52068E9684E
:1008500020F4E050084320602878000706D520687F
:10086000296920F4604040EAC100206000F038F8B7
:100870002168084AC1F30311515CC8400649086069
:1008800006480068FFF7CCFE0020C4E7003C0240A9
:1008900008380240741600080C00002004000020F4
:1008A0000448054900680968044AC1F38221515C83
:1008B000C84070470C000020083802408416000829
:1008C0000448054900680968044AC1F34231515C93
:1008D000C84070470C000020083802408416000809
:1008E000154810B5006810F00C02144813D01449D4
:1008F000042A0FD0082A0ED10F4C241F2268236827
:1009000002F03F025B0207D52068C0F38810A0FB0D
:10091000010106E0084610BD2168C1F38811A1FB62
:1009200000010023FFF7BEFC2168C1F30141491C0F
:100930004900B0FBF1F010BD083802400024F4007B
:1009400040787D012DE9F84F04006ED02078DFF863
:100950004C93C007A9F104054AD009F104000168CD
:10096000C1F38101012908D00068C0F38100022889
:100970000AD1D9F80000400206D52868800337D58F
:1009800060680028E1D033E06068B0F5803F10D0A7
:10099000B0F5A02F286810D020F480302860286897
:1009A00020F4802028606068A8B1FFF711FE064699
:1009B0000DE0286840F48030F4E740F4802028609F
:1009C000F7E700BFFFF704FE801B642873D8286890
:1009D0008003F7D50CE0FFF7FBFD064605E000BFFE
:1009E000FFF7F6FD801B6428F0D828688003F7D451
:1009F0002078DFF8AC8280074FF0000A3ED5A74888
:100A0000001D016811F00C0F08D00068C0F38100D0
:100A100002280BD1D9F80000400207D428688007CB
:100A200016D5E068012800D112E033E1E068B8B1E2
:100A30000120C8F80000FFF7CBFD064605E000BF27
:100A4000FFF7C6FD801B0228C0D828688007F7D5AD
:100A50002868216920F0F80040EAC10028600DE014
:100A6000C8F800A0FFF7B4FD064604E0FFF7B0FDAC
:100A7000801B02281FD828688007F7D42078000739
:100A800022D5864F87486169703771B101210160B5
:100A9000FFF79EFD064604E0FFF79AFD801B022843
:100AA00009D838688007F7D50EE0C0F800A0FFF736
:100AB0008FFD064605E082E0FFF78AFD801B0228D5
:100AC0007DD838688007F7D42078400768D5DFF8EC
:100AD000CCB100270BF13C0BDBF80000C0000BD4BD
:100AE000DBF8001041F08051CBF80010DBF800007B
:100AF000012700F0805000906B4E3068C00510D484
:100B0000306840F480703060FFF762FD009005E0CF
:100B1000FFF75EFD0099401A022850D83068C005E2
:100B2000F6D55E4EA0686C3601280FD005283068D7
:100B300010D020F001003060306820F004003060F8
:100B4000A068B8B1FFF744FD00900FE0306840F0B6
:100B50000100F4E740F004003060F7E7FFF738FDEC
:100B60000099411A41F28830814266D83068800786
:100B7000F4D50EE0FFF72CFD009007E0FFF728FD0D
:100B80000099411A41F28830814256D83068800776
:100B9000F4D42FB1DBF8001021F08051CBF8001015
:100BA000A069C8B33D49091D0968C1F38101022943
:100BB0004AD00228504607D0C8F8600000E03CE068
:100BC000FFF706FD04463BE04746C8F86000FFF724
:100BD000FFFC064605E000BFFFF7FAFC801B022879
:100BE0002BD828688001F7D4D4E907010843A16A0B
:100BF0002E4A490802EB0141626A41EA8211084328
:100C000094F82C1040EA0161C9F800100120386600
:100C1000FFF7DEFC044606E03EE000BFFFF7D8FC2D
:100C2000001B022809D828688001F7D534E000BFEE
:100C3000FFF7CEFC001B022802D90320BDE8F88F85
:100C400028688001F4D427E00128F7D0D9F8000003
:100C5000E26900F4800191421CD1226A00F03F0158
:100C6000914217D147F6C071626A0140B1EB821F11
:100C700010D1A26A4FF0FF3300F4403103EB52026F
:100C8000B1EB024F06D194F82C1000F07060B0EB7D
:100C9000016F01D00120D1E70020CFE704380240E6
:100CA00000004742800E4742007000400000FFFFF6
:100CB00010B5401EB0F1807F01D3012010BD4FF070
:100CC000E02460610F21601700F0C2F90020A061EC
:100CD00007202061002010BD70B5040004D094F8F6
:100CE0003D00002510B106E0012070BD84F83C50A5
:100CF000204600F022F8242084F83D002068C168D6
:100D000021F40051C160204600F0D6F82068016946
:100D100021F4904101612068416921F02A0141617B
:100D20002068C16841F40051C1602564202084F826
:100D30003D0084F83E00002070BD70472DE9F84367
:100D4000044690F83D001F4616460D4620284CD11B
:100D5000C5B1BEB194F83C00012846D0012084F80A
:100D60003C004FF00008C4F84080212084F83D008A
:100D7000FFF72EFCA6848146E684A068B0F5805F6C
:100D800003D004E00120BDE8F883206928B12E4695
:100D90005FF0000584F83C800EE00026FAE7802131
:100DA000204600F00FF9A0B9AEB116F8010B21688A
:100DB0004860E08C401EE084E08C4B464FF000021F
:100DC00000970028EBD14FF04001204600F0FAF8E0
:100DD00030B10320D7E735F8020BC0F30800E6E78F
:100DE000202084F83D000020CDE70220CBE7FEE77D
:100DF000FEE7FEE710B5FFF7F1FB00F0C7FB0128A7
:100E000003D0BDE8104000F0ABBB10BD70B592B090
:100E100030216846FFF77EFA14210CA8FFF77AFA12
:100E20001F480025016841F080510160006800F012
:100E3000805011901B48016841F4404101600068F6
:100E4000022400F440401190012000900004019021
:100E50008001CDE906400F260896D820CDE9090487
:100E600004200B906846FFF76DFD08B172B6FEE7EF
:100E7000FFF744FC08B172B6FEE74FF4A050CDE98D
:100E80000E504FF48050CDE90C64109005210CA851
:100E9000FFF76CFC002801D072B6FEE712B070BDFF
:100EA00040380240007000400248016841F470017F
:100EB0000160704788ED00E070B504460068016984
:100EC000E26821F44051114301612169A068E2699F
:100ED00008436169114308432168CA6849F20C63F9
:100EE0009A430243CA6020684169A26921F44071B3
:100EF0001143416131492068884202D0304988421B
:100F000002D1FFF7DDFC01E0FFF7CAFCE269002334
:100F1000192164253226B2F5004F626828D0A0FB63
:100F20000101930F9200FFF7BDF90146B0FBF5F008
:100F30006FF01802504301EB800006EB0010B0FB8D
:100F4000F5F000F0F002B1FBF5F002EB0012B1FB9E
:100F5000F5F06FF01803584301EB800006EB00102A
:100F6000B0FBF5F000F00F0021681044886070BD00
:100F7000A0FB010192185B41FFF794F90146B0FB19
:100F8000F5F00201B1FBF5F06FF01803584301EBE7
:100F9000800006EBC000B0FBF5F000F0F80002EBBB
:100FA0004002B1FBF5F0584301EB800006EBC000B6
:100FB000B0FBF5F000F00700D6E70000001001409C
:100FC000001401402DE9F041984617460E460446AC
:100FD000069D27E0681C25D02DB1FFF7F9FAA0EB9C
:100FE0000800A8421ED920680C3050E8001F21F4E8
:100FF000D07140E80012002AF5D12068143050E882
:10100000001F21F0010140E80012002AF5D1202044
:1010100084F83D0084F83E00002084F83C00032062
:10102000BDE8F0812068006836EA000004D00020A6
:10103000B842CFD00020F3E70120F9E7FEE7000037
:10104000014A024900F023B8B11000084C0000200A
:101050000907090E002804DB00F1E02080F80014E5
:10106000704700F00F0000F1E02080F8141D704779
:1010700002E008C8121F08C1002AFAD17047704761
:10108000002001E001C1121F002AFBD170472DE9A9
:10109000F04116460F460446002503E03946B047A6
:1010A000641C6D1C20780028F8D12846BDE8F0812A
:1010B00038B50446009005484FF47A7301228068E1
:1010C0006946FFF73BFE204638BD00007000002057
:1010D0001FB5FFF78BFAFFF799FE0024DFF8AC800D
:1010E0000125CDE90054CDE9024846462B460722AA
:1010F0000B21274800F056F8CDE90054CDE902460F
:10110000012307220A21224800F04CF8CDE90054BF
:10111000CDE90246012307220C211D4800F042F8C8
:101120001C4E0B27CDE90054CDE90276082300229E
:101130000921174800F036F8CDE90054CDE90276D0
:10114000082300220A21124800F02CF812480168F6
:1011500041F0100101600068002300F010000090D1
:101160000220CDE900400A481A4601212030CDE98D
:10117000024500F03DF809A0FFF762FF4446AD02CA
:10118000012229462046FFF71DFAF9E7001C02401C
:101190005000002000000240443802400A68656C9C
:1011A0006C6F0A002DE9F047044608A89A4690E8BB
:1011B000E0018946104600F06BF84946204600F0F1
:1011C000EEF85146204600F0CBF82946204600F0C4
:1011D00023F93146204600F015F93946204600F043
:1011E0004BF804F108014046BDE8F047FFF7D0B8DE
:1011F0002DE9F8439846034608A890E8F000154802
:10120000D0F800C04CF0100CC0F800C0006800F02E
:1012100010000090184600F007F91146184600F03B
:101220000EF94146184600F039F92146184600F0FB
:1012300042F92946184600F01AF93146184600F0DE
:1012400005F93946184600F01FF99868BDE8F843DB
:10125000FFF742BD443802400648416B096829B196
:10126000416BC968C9684968816270474FF0FF31B6
:10127000FAE7000010000020002907D00B2903D056
:101280001A2903D1012100E0072181617047000084
:1012900008B532490B285FD2DFE800F0060E161EB3
:1012A000262E363E464E5600086840F00100086083
:1012B000086800F001004EE0086840F00200086095
:1012C000086800F0020046E0086840F0040008608A
:1012D000086800F004003EE0086840F0080008607C
:1012E000086800F0080036E0086840F01000086068
:1012F000086800F010002EE0086840F02000086048
:10130000086800F0200026E0086840F0400008600F
:10131000086800F040001EE0086840F080000860A7
:10132000086800F0800016E0086840F480700860EB
:10133000086800F480700EE0086840F400700860EF
:10134000086800F4007006E0086840F480600860F7
:10135000086800F48060009008BD0000303802404A
:1013600009291BD2DFE801F00507090F1114170B3B
:101370000D00002111E001210FE011210DE01221EB
:101380000BE0022109E0032107E04FF4041104E01F
:101390004FF4881101E04FF44411C16070471029E7
:1013A0002FD2DFE801F02E080A0C0E1012141619C5
:1013B0001C1F2225282B022122E0042120E00821E5
:1013C0001EE010211CE020211AE0402118E08021BD
:1013D00016E04FF4807113E04FF4007110E04FF409
:1013E00080610DE04FF400610AE04FF4805107E0A6
:1013F0004FF4005104E04FF4804101E04FF400410C
:101400008160704731B1012903D0022903D1012144
:1014100000E002210161704721B1012902D00229B7
:1014200001D103214161704731B1012903D14FF44A
:10143000E1318068416070474FF41651F9E711B10E
:10144000012902D1090380688160704731B1012907
:1014500007D0022908D0032902D1090280688161DE
:1014600070474FF40071F9E74FF48071F6E729B146
:10147000012905D0022906D10C2102E0082100E053
:10148000042180684161704729B1012902D10021FE
:101490008068C16170474FF40041F9E741B101290B
:1014A00004D0022906D14FF4C06101E04FF48061FD
:1014B00080680161704711B1012902D14903806838
:1014C000C1607047D0E9013201699A60D0E9012317
:1014D0005A604A68824201D182684A6000220261F1
:1014E0000868401E08600868704742684A60936850
:1014F0008B6093685960916008610168491C0160C4
:10150000704700001448016B11B10121C16170479F
:101510000021C1610169B1FA81F1C1F11F0101EB43
:1015200081020E4951F822306BB101EB820101F1C9
:1015300008034A6852684A609A4201D152684A6078
:10154000D16801607047502080F31188BFF34F8F3E
:10155000BFF36F8FFEE70000100000207C0000202A
:1015600010B5502080F31188BFF34F8FBFF36F8FFA
:1015700000F01AF818B104494FF0805008600020BC
:1015800080F3118810BD000004ED00E005484169BA
:1015900019B1006B18B1002070470120704702207C
:1015A00070470000100000202DE9F0412F4C00266C
:1015B000206B28B1A069401CA0613046BDE8F081D5
:1015C000E5686D1CE56013D1606B006838B1502090
:1015D00080F31188BFF34F8FBFF36F8FFEE7606B0F
:1015E000A16B6163A063206A401C2062FFF734FE98
:1015F000A06ADFF87C80854209D3606B0068A0B1E7
:10160000606BC068C7687868854211D2A0622068A4
:10161000C06A00EB800158F82100012800D901269A
:10162000E0690028C9D00126C7E74FF0FF30EDE799
:10163000381DFFF747FFB86A18B107F11800FFF728
:1016400041FFF96A0120226988401043206101EBC3
:10165000810108EB8100391DFFF747FFF86A216817
:10166000C96A8842C9D30126C7E7000010000020DC
:101670007C000020000000000000000001020304C4
:10168000060708090000000001020304AC16000868
:10169000000000205000000070100008FC16000838
:1016A000500000202005000080100008010000000C
:1016B00010000000000000000024F4000000000002
:1016C000000000000000000000000000000000001A
:1016D000000000000000000000000000000000000A
:1016E00000000000000000000000000000000000FA
:0C16F000000000000000000000000000EE
:04000005080001AD41
:00000001FF
